:100000000C942A000C9447000C9447000C94470071
:100010000C9447000C9447000C9447000C94470044
:100020000C9447000C9447000C9447000C94470034
:100030000C9447000C9447000C9447000C94470024
:100040000C9447000C9447000C9447000C94470014
:100050000C94470011241FBECFE5D8E0DEBFCDBF12
:1000600010E0A0E6B0E0E0EDFDE002C005900D92EA
:10007000A436B107D9F723E0A4E6B0E001C01D9291
:10008000AA30B207E1F70E942C060C94E6060C9405
:10009000000011B88FEF80B9089594EA96BF06B6B4
:1000A00007FEFDCF91B1987F983071F483B984E851
:1000B00086BF06B607FEFDCF81B1887F883131F05B
:1000C000803231F083E0089580E0089581E0089562
:1000D00082E0089594EA96BF06B607FEFDCF91B17F
:1000E000987F903171F483B984E886BF06B607FE25
:1000F000FDCF81B1887F803431F0803231F083E0F0
:10010000089580E0089581E0089582E0089583B91C
:1001100084E886BF06B607FEFDCF81B1887F8832AE
:1001200021F0803321F082E0089580E0089581E09D
:10013000089584EC86BF06B607FEFDCF83B108950F
:1001400084E986BF06B604FCFDCF08958BE792E9EB
:100150000197F1F700C0000080ED0E944D0089E199
:100160000E94870087E00E9487000E94A00080ED27
:100170000E944D008BE60E94870081E00E9487006C
:100180000E94A00080ED0E944D008AE10E9487003D
:1001900080E00E9487000E94A00080ED0E944D0038
:1001A0008BE10E94870088E10E9487000E94A000E6
:1001B00080ED0E944D008CE10E94870080E00E944B
:1001C00087000E94A00080ED0E944D008FE10E94F8
:1001D000870080E00E9487000E94A00080ED0E94BE
:1001E0004D0083E20E94870080E00E9487000E9409
:1001F000A00080ED0E944D008DE10E94870080E00C
:100200000E9487000E94A00080ED0E944D008EE1B8
:100210000E94870080E00E9487000E94A00080ED7D
:100220000E944D0080E20E94870080E00E948700CB
:100230000E94A00080ED0E944D0082E20E94870093
:1002400080E00E9487000E94A00080ED0E944D0087
:1002500081E20E94870080E00E9487000E94A00047
:1002600080ED0E944D0084E20E94870080E00E94A1
:1002700087000E94A00080ED0E944D0086E20E944F
:10028000870080E00E9487000E94A00080ED0E940D
:100290004D0085E20E94870080E00E9487000E9456
:1002A000A00080ED0E944D0087E20E94870080E060
:1002B0000E9487000E94A00080ED0E944D0089E20C
:1002C0000E94870080E00E9487000E94A00080EDCD
:1002D0000E944D0088E20E94870080E00E94870013
:1002E0000E94A00080ED0E944D008AE20E948700DB
:1002F00080E00E9487000E94A00080ED0E944D00D7
:100300008CE20E94870080E00E9487000E94A0008B
:1003100080ED0E944D008BE20E94870080E00E94E9
:1003200087000E94A00080ED0E944D008DE20E9497
:10033000870080E00E9487000E94A00080ED0E945C
:100340004D008FE20E94870080E00E9487000E949B
:10035000A00080ED0E944D008EE20E94870080E0A8
:100360000E9487000E94A00080ED0E944D0080E363
:100370000E94870080E00E9487000E94A00080ED1C
:100380000E944D0082E30E94870080E00E94870067
:100390000E94A00080ED0E944D0081E30E94870032
:1003A00080E00E9487000E94A00080ED0E944D0026
:1003B00084E30E94870080E00E9487000E94A000E2
:1003C00080ED0E944D0083E30E94870080E00E9440
:1003D00087000E94A00080ED0E944D0085E30E94EE
:1003E000870080E00E9487000E94A00080ED0E94AC
:1003F0004D0087E30E94870080E00E9487000E94F2
:10040000A00080ED0E944D0088E30E94870081E0FB
:100410000E9487000E94A00080ED0E944D0083E6AC
:100420000E94870080E00E9487000E94A00080ED6B
:100430000E944D0084E60E94870080E00E948700B1
:100440000E94A00080ED0E944D0085E60E9487007A
:1004500080E00E9487000E94A00080ED0E944D0075
:1004600086E60E94870080E00E9487000E94A0002C
:1004700080ED0E944D0087E60E94870080E00E9488
:1004800087000E94A00080ED0E944D0088E60E9437
:10049000870080E00E9487000E94A00080ED0E94FB
:1004A0004D0089E60E94870080E00E9487000E943C
:1004B000A00080ED0E944D008AE60E94870080E047
:1004C0000E9487000E94A00080ED0E944D008CE6F3
:1004D0000E94870080E00E9487000E94A00080EDBB
:1004E0000E944D0084E70E94870080E00E94870000
:1004F0000E94A000089580ED0E944D008BE30E94B1
:10050000870081ED0E946A000895DF92EF92FF92CA
:100510000F931F93CF93DF937C018B01EA010E941D
:100520007B020E949900D82E0E9499006D2D70E0E8
:10053000762F6627682B719561957109072E000C3F
:10054000880B990B0E948206F70160837183828376
:1005500093830E949900F82E0E9499006F2D70E0FD
:10056000762F6627682B719561957109072E000C0F
:10057000880B990B0E948206F80160837183828345
:1005800093830E949900182F0E949900612F70E0B8
:10059000762F6627682B719561957109072E000CDF
:1005A000880B990B0E948206688379838A839B83D8
:1005B0000E94A000DF91CF911F910F91FF90EF90CB
:1005C000DF900895CF93DF93C0E0D1E060E070E06A
:1005D0001CC0C90133230CF40196FC01F595E79585
:1005E000E40FF51FEE0FFF1FEC59FF4F8081918143
:1005F0008D939D932F5F3F4F2031310551F76F5FF2
:100600007F4FA0966031710589F0AB01772314F418
:100610004F5F5F4F55954795DE0120E030E0440F76
:10062000551F440F551F440F551FD3CFDF91CF9156
:100630000895CF93DF934617570744F1FC01E295E5
:10064000F295F07FFE27E07FFE27E60FF71FEE0F03
:10065000FF1FE050FF4F27E030E080E090E0C1E076
:10066000D0E0A191B191119749F4DE01022E02C0B0
:10067000AA0FBB1F0A94E2F78A2B9B2B215031094A
:100680006F5F7F4F4617570764F702C080E090E026
:1006900080959095DF91CF910895CF93DF93461782
:1006A000570744F1FC01E295F295F07FFE27E07FC9
:1006B000FE27E60FF71FEE0FFF1FE050FF4F27E06A
:1006C00030E080E090E0C1E0D0E0A191B1911297DC
:1006D00049F4DE01022E02C0AA0FBB1F0A94E2F702
:1006E0008A2B9B2B215031096F5F7F4F461757078D
:1006F00064F702C080E090E080959095DF91CF9103
:100700000895EF92FF920F931F93CF93DF938FEF94
:1007100088BB82BBC0E0D0E01FEFCBBB47E050E01E
:1007200060E070E0CE010E944D0388BB47E050E0DE
:1007300060E070E0CE010E94190382BB80E18A95DF
:10074000F1F700C018BB12BB2196C830D10529F7BC
:1007500018E0C0E0D0E00FEF1BBB4FE050E068E0D6
:1007600070E0CE010E944D0388BB4FE050E068E08E
:1007700070E0CE010E94190382BB80E18A95F1F7F7
:1007800000C008BB02BB21961F5FC830D10521F70E
:100790007E0110E10FEF1BBB47E050E060E070E02E
:1007A000C7010E944D0388BB47E050E060E070E065
:1007B000C7010E94190382BB80E18A95F1F700C04E
:1007C00008BB1F5F8FEFE81AF80A183121F70FEF07
:1007D0001BBB4FE050E068E070E0CE010E944D038B
:1007E00088BB4FE050E068E070E0CE010E94190342
:1007F00082BB80E18A95F1F700C008BB02BB1F5F96
:100800002196103229F7DF91CF911F910F91FF9020
:10081000EF9008950F931F93CF93DF93A6EDB0E071
:1008200066E770E023C0419151914115510581F077
:10083000808191814817590759F482819381481723
:10084000590731F4848195814817590709F481C00B
:100850002F5F3F4F2530310531F750976A177B07DF
:1008600029F444EB50E0C4E8D0E027C0FD0121E0CA
:1008700030E0D9CF20A931A92115310581F080A11F
:1008800091A12817390759F48089918928173907C8
:1008900031F4808191812817390709F45AC03296C2
:1008A0004E175F0739F7405151094C175D0729F47E
:1008B000CCEAD0E00CE710E024C0FA013E97DACF92
:1008C00042A553A54115510579F0848D958D4817A2
:1008D000590751F4868597854817590729F480816F
:1008E000918148175907A9F12F5F3F4F3296253064
:1008F000310531F76097C017D10719F4C6EAD0E087
:1009000022C0FE0121E030E0DBCF46A957A9411506
:10091000510579F084A195A14817590751F48289AE
:1009200093894817590729F48081918148175907FD
:1009300081F02F5F3F4F32962830310531F76097B5
:100940006C177D0721F0FE0124E030E0DECF80E06F
:1009500090E0DF91CF911F910F9108954091620037
:1009600050916300FA01EE0FFF1FEC52FF4F8081A0
:100970009181892B61F0FA01EE0FFF1FEC53FF4FBD
:1009800086E090E020813181232BC9F402C087E00A
:1009900090E0880F991F880F991F880F991F840F67
:1009A000951FFC01EE0FFF1FEC59FF4F8091600077
:1009B000909161009183808381E090E00895019798
:1009C00070978F3F2FEF9207E9F680E090E008954F
:1009D000E0916200F0916300EE0FFF1FEC59FF4FB2
:1009E000809160009091610091838083089580914F
:1009F000620090916300FC01EE0FFF1FEC59FF4F66
:100A00001182108220916000309161002130310507
:100A100039F422E030E0309361002093600006C09A
:100A200021E030E03093610020936000880F991F2F
:100A3000FC01EC59FF4F809160009091610091831F
:100A4000808308950197F9F480916200909163008A
:100A500082309105B4F1FC01EE0FFF1FEC59FF4FFE
:100A60001182108201979093630080936200880F37
:100A7000991FFC01EC59FF4F80916000909161003B
:100A80009183808308958091620090916300873004
:100A90009105BCF4FC01EE0FFF1FEC59FF4F1182D2
:100AA000108201969093630080936200880F991FD3
:100AB000FC01EC59FF4F809160009091610091839F
:100AC00080830895019749F480E09FEF8BBB98BB2A
:100AD00012BA8F5F8032D1F7089580E09FEF8BBB11
:100AE00018BA92BB8F5F8032D1F70895CF93DF930E
:100AF00046EE50E060EF70E08AEF90E00E948502E1
:100B00006091FA007091FB008091FC009091FD00D3
:100B10000E944A06EB017093010360930003609109
:100B2000F0007091F1008091F2009091F3000E942A
:100B30004A067093FF006093FE006091E60070919A
:100B4000E7008091E8009091E9000E944A069B012D
:100B500070930903609308038091E4009091E5008D
:100B60008130910509F46CC0203F48ED340794F4BE
:100B700081E090E09093E5008093E4000E942205DC
:100B80008FE59AEE20E0815090402040E1F700C0D0
:100B900000003FC08230910509F456C02131374230
:100BA00094F082E090E09093E5008093E4000E944E
:100BB00022058FE59AEE20E0815090402040E1F739
:100BC00000C0000026C08330910569F0C03F48EDA9
:100BD000D4073CF483E090E09093E5008093E40038
:100BE00018C00497B1F0C131D7429CF084E090E086
:100BF0009093E5008093E4000E94AE040E94F70405
:100C00009FE52AEE40E0915020404040E1F700C0CF
:100C10000000809100039091010389579C4E8F3012
:100C20009742B8F4809108039091090389579C4E2C
:100C30008F30974270F41092E5001092E40009C0E2
:100C4000213137421CF2ADCFC03F88EDD80714F2F6
:100C5000CACFDF91CF91089580E884BF84BF8FE130
:100C60008ABB8FEF87BB81BB14BA0E9449000E94E8
:100C7000A6000E94E8040E94E2020E9481030E94F2
:100C800076050E940A04EC01892BA9F3CE010E948B
:100C90006205FCCF0E9451066894B1110C94E006E5
:100CA00008950E94C50688F09F5798F0B92F99279C
:100CB000B751B0F0E1F0660F771F881F991F1AF047
:100CC000BA95C9F714C0B13091F00E94DF06B1E0C7
:100CD00008950C94DF06672F782F8827B85F39F0C6
:100CE000B93FCCF3869577956795B395D9F73EF4E0
:100CF00090958095709561957F4F8F4F9F4F089588
:100D0000E89409C097FB3EF49095809570956195A5
:100D10007F4F8F4F9F4F9923A9F0F92F96E9BB275B
:100D20009395F695879577956795B795F111F8CFD7
:100D3000FAF4BB0F11F460FF1BC06F5F7F4F8F4F42
:100D40009F4F16C0882311F096E911C0772321F038
:100D50009EE8872F762F05C0662371F096E8862FD0
:100D600070E060E02AF09A95660F771F881FDAF727
:100D7000880F9695879597F9089557FD9058440FD9
:100D8000551F59F05F3F71F04795880F97FB991FEA
:100D900061F09F3F79F087950895121613061406A7
:100DA000551FF2CF4695F1DF08C016161706180634
:100DB000991FF1CF86957105610508940895E8940F
:100DC000BB2766277727CB0197F90895F894FFCFC3
:040DD0000100050019
:00000001FF
